{
  "address": "0xf712c1E41d557724f170C278416014B92618505E",
  "abi": [
    {
      "inputs": [
        {
          "internalType": "address",
          "name": "_jpycAddr",
          "type": "address"
        }
      ],
      "stateMutability": "nonpayable",
      "type": "constructor"
    },
    {
      "inputs": [
        {
          "internalType": "address",
          "name": "nftAddress",
          "type": "address"
        },
        {
          "internalType": "uint256",
          "name": "tokenId",
          "type": "uint256"
        }
      ],
      "name": "NftMarketplace__AlreadyListed",
      "type": "error"
    },
    {
      "inputs": [],
      "name": "NftMarketplace__NoProceeds",
      "type": "error"
    },
    {
      "inputs": [],
      "name": "NftMarketplace__NotApprovedForMarketplace",
      "type": "error"
    },
    {
      "inputs": [
        {
          "internalType": "address",
          "name": "nftAddress",
          "type": "address"
        },
        {
          "internalType": "uint256",
          "name": "tokenId",
          "type": "uint256"
        }
      ],
      "name": "NftMarketplace__NotListed",
      "type": "error"
    },
    {
      "inputs": [],
      "name": "NftMarketplace__NotOwner",
      "type": "error"
    },
    {
      "inputs": [],
      "name": "NftMarketplace__PriceMustBeAboveZero",
      "type": "error"
    },
    {
      "inputs": [
        {
          "internalType": "address",
          "name": "nftAddress",
          "type": "address"
        },
        {
          "internalType": "uint256",
          "name": "tokenId",
          "type": "uint256"
        },
        {
          "internalType": "uint256",
          "name": "price",
          "type": "uint256"
        }
      ],
      "name": "NftMarketplace__PriceNotMet",
      "type": "error"
    },
    {
      "inputs": [],
      "name": "NftMarketplace__TransferFailed",
      "type": "error"
    },
    {
      "anonymous": false,
      "inputs": [
        {
          "indexed": true,
          "internalType": "address",
          "name": "buyer",
          "type": "address"
        },
        {
          "indexed": true,
          "internalType": "address",
          "name": "nftAddress",
          "type": "address"
        },
        {
          "indexed": true,
          "internalType": "uint256",
          "name": "tokenId",
          "type": "uint256"
        },
        {
          "indexed": false,
          "internalType": "uint256",
          "name": "price",
          "type": "uint256"
        }
      ],
      "name": "ItemBought",
      "type": "event"
    },
    {
      "anonymous": false,
      "inputs": [
        {
          "indexed": true,
          "internalType": "address",
          "name": "seller",
          "type": "address"
        },
        {
          "indexed": true,
          "internalType": "address",
          "name": "nftAddress",
          "type": "address"
        },
        {
          "indexed": true,
          "internalType": "uint256",
          "name": "tokenId",
          "type": "uint256"
        }
      ],
      "name": "ItemCanceled",
      "type": "event"
    },
    {
      "anonymous": false,
      "inputs": [
        {
          "indexed": true,
          "internalType": "address",
          "name": "seller",
          "type": "address"
        },
        {
          "indexed": true,
          "internalType": "address",
          "name": "nftAddress",
          "type": "address"
        },
        {
          "indexed": true,
          "internalType": "uint256",
          "name": "tokenId",
          "type": "uint256"
        },
        {
          "indexed": false,
          "internalType": "uint256",
          "name": "price",
          "type": "uint256"
        }
      ],
      "name": "ItemListed",
      "type": "event"
    },
    {
      "inputs": [
        {
          "internalType": "address",
          "name": "nftAddress",
          "type": "address"
        },
        {
          "internalType": "uint256",
          "name": "tokenId",
          "type": "uint256"
        },
        {
          "internalType": "uint256",
          "name": "validAfter",
          "type": "uint256"
        },
        {
          "internalType": "uint256",
          "name": "validBefore",
          "type": "uint256"
        },
        {
          "internalType": "bytes32",
          "name": "nonce",
          "type": "bytes32"
        },
        {
          "internalType": "uint8",
          "name": "v",
          "type": "uint8"
        },
        {
          "internalType": "bytes32",
          "name": "r",
          "type": "bytes32"
        },
        {
          "internalType": "bytes32",
          "name": "s",
          "type": "bytes32"
        }
      ],
      "name": "buyItem",
      "outputs": [],
      "stateMutability": "payable",
      "type": "function"
    },
    {
      "inputs": [
        {
          "internalType": "address",
          "name": "nftAddress",
          "type": "address"
        },
        {
          "internalType": "uint256",
          "name": "tokenId",
          "type": "uint256"
        }
      ],
      "name": "cancelListing",
      "outputs": [],
      "stateMutability": "nonpayable",
      "type": "function"
    },
    {
      "inputs": [
        {
          "internalType": "address",
          "name": "nftAddress",
          "type": "address"
        },
        {
          "internalType": "uint256",
          "name": "tokenId",
          "type": "uint256"
        }
      ],
      "name": "getListed",
      "outputs": [
        {
          "components": [
            {
              "internalType": "uint256",
              "name": "price",
              "type": "uint256"
            },
            {
              "internalType": "address",
              "name": "seller",
              "type": "address"
            }
          ],
          "internalType": "struct NftMarketplace.Listing",
          "name": "",
          "type": "tuple"
        }
      ],
      "stateMutability": "view",
      "type": "function"
    },
    {
      "inputs": [
        {
          "internalType": "address",
          "name": "seller",
          "type": "address"
        }
      ],
      "name": "getProceeds",
      "outputs": [
        {
          "internalType": "uint256",
          "name": "",
          "type": "uint256"
        }
      ],
      "stateMutability": "view",
      "type": "function"
    },
    {
      "inputs": [
        {
          "internalType": "address",
          "name": "nftAddress",
          "type": "address"
        },
        {
          "internalType": "uint256",
          "name": "tokenId",
          "type": "uint256"
        },
        {
          "internalType": "uint256",
          "name": "price",
          "type": "uint256"
        }
      ],
      "name": "listItem",
      "outputs": [],
      "stateMutability": "nonpayable",
      "type": "function"
    },
    {
      "inputs": [
        {
          "internalType": "address",
          "name": "nftAddress",
          "type": "address"
        },
        {
          "internalType": "uint256",
          "name": "tokenId",
          "type": "uint256"
        },
        {
          "internalType": "uint256",
          "name": "newPrice",
          "type": "uint256"
        }
      ],
      "name": "updateListing",
      "outputs": [],
      "stateMutability": "nonpayable",
      "type": "function"
    },
    {
      "inputs": [
        {
          "internalType": "uint256",
          "name": "validAfter",
          "type": "uint256"
        },
        {
          "internalType": "uint256",
          "name": "validBefore",
          "type": "uint256"
        },
        {
          "internalType": "bytes32",
          "name": "nonce",
          "type": "bytes32"
        },
        {
          "internalType": "uint8",
          "name": "v",
          "type": "uint8"
        },
        {
          "internalType": "bytes32",
          "name": "r",
          "type": "bytes32"
        },
        {
          "internalType": "bytes32",
          "name": "s",
          "type": "bytes32"
        }
      ],
      "name": "withdrawProceeds",
      "outputs": [],
      "stateMutability": "nonpayable",
      "type": "function"
    }
  ],
  "transactionHash": "0x1a42f85bb5f2ca20b6eba44f5ad0ea20970e54668cd44aaa757bdecd32ee19e3",
  "args": [
    "0x772506B2e4105ABE0489895E807e45bA09c83db8"
  ],
  "numDeployments": 1,
  "solcInputHash": "a5c3eab717f2e0187adf2f517440cfde",
  "bytecode": "0x608060405234801562000010575f80fd5b5060405162001a2d38038062001a2d8339818101604052810190620000369190620000e9565b60015f819055508060015f6101000a81548173ffffffffffffffffffffffffffffffffffffffff021916908373ffffffffffffffffffffffffffffffffffffffff1602179055505062000119565b5f80fd5b5f73ffffffffffffffffffffffffffffffffffffffff82169050919050565b5f620000b38262000088565b9050919050565b620000c581620000a7565b8114620000d0575f80fd5b50565b5f81519050620000e381620000ba565b92915050565b5f6020828403121562000101576200010062000084565b5b5f6200011084828501620000d3565b91505092915050565b61190680620001275f395ff3fe60806040526004361061006f575f3560e01c8063a84800711161004d578063a8480071146100ff578063b2ddee061461011b578063cd6a20dc14610143578063f772adf11461017f5761006f565b806330cfeda9146100735780634b30a6bb146100af57806389bfd38f146100d7575b5f80fd5b34801561007e575f80fd5b5061009960048036038101906100949190611355565b6101a7565b6040516100a69190611398565b60405180910390f35b3480156100ba575f80fd5b506100d560048036038101906100d09190611444565b6101ed565b005b3480156100e2575f80fd5b506100fd60048036038101906100f891906114cd565b610349565b005b6101196004803603810190610114919061151d565b61078b565b005b348015610126575f80fd5b50610141600480360381019061013c91906115ce565b610bf9565b005b34801561014e575f80fd5b50610169600480360381019061016491906115ce565b610ec5565b6040516101769190611657565b60405180910390f35b34801561018a575f80fd5b506101a560048036038101906101a091906114cd565b610f8a565b005b5f60035f8373ffffffffffffffffffffffffffffffffffffffff1673ffffffffffffffffffffffffffffffffffffffff1681526020019081526020015f20549050919050565b5f60035f3373ffffffffffffffffffffffffffffffffffffffff1673ffffffffffffffffffffffffffffffffffffffff1681526020019081526020015f205490505f8111610267576040517f668a7c4200000000000000000000000000000000000000000000000000000000815260040160405180910390fd5b5f60035f3373ffffffffffffffffffffffffffffffffffffffff1673ffffffffffffffffffffffffffffffffffffffff1681526020019081526020015f208190555060015f9054906101000a900473ffffffffffffffffffffffffffffffffffffffff1673ffffffffffffffffffffffffffffffffffffffff1663ef55bec63033848b8b8b8b8b8b6040518a63ffffffff1660e01b81526004016103139998979695949392919061169d565b5f604051808303815f87803b15801561032a575f80fd5b505af115801561033c573d5f803e3d5ffd5b5050505050505050505050565b8282335f60025f8573ffffffffffffffffffffffffffffffffffffffff1673ffffffffffffffffffffffffffffffffffffffff1681526020019081526020015f205f8481526020019081526020015f206040518060400160405290815f8201548152602001600182015f9054906101000a900473ffffffffffffffffffffffffffffffffffffffff1673ffffffffffffffffffffffffffffffffffffffff1673ffffffffffffffffffffffffffffffffffffffff168152505090505f815f0151111561044e5783836040517fc2f0d709000000000000000000000000000000000000000000000000000000008152600401610445929190611728565b60405180910390fd5b8686335f8390505f8173ffffffffffffffffffffffffffffffffffffffff16636352211e856040518263ffffffff1660e01b815260040161048f9190611398565b602060405180830381865afa1580156104aa573d5f803e3d5ffd5b505050506040513d601f19601f820116820180604052508101906104ce9190611763565b90508073ffffffffffffffffffffffffffffffffffffffff168373ffffffffffffffffffffffffffffffffffffffff1614610535576040517f94953b6000000000000000000000000000000000000000000000000000000000815260040160405180910390fd5b5f8a1161056e576040517f096d7ecf00000000000000000000000000000000000000000000000000000000815260040160405180910390fd5b5f8c90503073ffffffffffffffffffffffffffffffffffffffff168173ffffffffffffffffffffffffffffffffffffffff1663081812fc8e6040518263ffffffff1660e01b81526004016105c29190611398565b602060405180830381865afa1580156105dd573d5f803e3d5ffd5b505050506040513d601f19601f820116820180604052508101906106019190611763565b73ffffffffffffffffffffffffffffffffffffffff161461064e576040517f13e7d28d00000000000000000000000000000000000000000000000000000000815260040160405180910390fd5b60405180604001604052808c81526020013373ffffffffffffffffffffffffffffffffffffffff1681525060025f8f73ffffffffffffffffffffffffffffffffffffffff1673ffffffffffffffffffffffffffffffffffffffff1681526020019081526020015f205f8e81526020019081526020015f205f820151815f01556020820151816001015f6101000a81548173ffffffffffffffffffffffffffffffffffffffff021916908373ffffffffffffffffffffffffffffffffffffffff1602179055509050508b8d73ffffffffffffffffffffffffffffffffffffffff163373ffffffffffffffffffffffffffffffffffffffff167fd547e933094f12a9159076970143ebe73234e64480317844b0dcb36117116de48e6040516107749190611398565b60405180910390a450505050505050505050505050565b610793611273565b87875f60025f8473ffffffffffffffffffffffffffffffffffffffff1673ffffffffffffffffffffffffffffffffffffffff1681526020019081526020015f205f8381526020019081526020015f206040518060400160405290815f8201548152602001600182015f9054906101000a900473ffffffffffffffffffffffffffffffffffffffff1673ffffffffffffffffffffffffffffffffffffffff1673ffffffffffffffffffffffffffffffffffffffff168152505090505f815f0151116108965782826040517f6d350f2200000000000000000000000000000000000000000000000000000000815260040161088d929190611728565b60405180910390fd5b5f60025f8d73ffffffffffffffffffffffffffffffffffffffff1673ffffffffffffffffffffffffffffffffffffffff1681526020019081526020015f205f8c81526020019081526020015f206040518060400160405290815f8201548152602001600182015f9054906101000a900473ffffffffffffffffffffffffffffffffffffffff1673ffffffffffffffffffffffffffffffffffffffff1673ffffffffffffffffffffffffffffffffffffffff16815250509050805f015134101561099d578b8b825f01516040517f817ce9f10000000000000000000000000000000000000000000000000000000081526004016109949392919061178e565b60405180910390fd5b805f015160035f836020015173ffffffffffffffffffffffffffffffffffffffff1673ffffffffffffffffffffffffffffffffffffffff1681526020019081526020015f205f8282546109f091906117f0565b9250508190555060015f9054906101000a900473ffffffffffffffffffffffffffffffffffffffff1673ffffffffffffffffffffffffffffffffffffffff1663e3ee160e3330845f01518e8e8e8e8e8e6040518a63ffffffff1660e01b8152600401610a649998979695949392919061169d565b5f604051808303815f87803b158015610a7b575f80fd5b505af1158015610a8d573d5f803e3d5ffd5b5050505060025f8d73ffffffffffffffffffffffffffffffffffffffff1673ffffffffffffffffffffffffffffffffffffffff1681526020019081526020015f205f8c81526020019081526020015f205f8082015f9055600182015f6101000a81549073ffffffffffffffffffffffffffffffffffffffff021916905550508b73ffffffffffffffffffffffffffffffffffffffff166342842e0e8260200151338e6040518463ffffffff1660e01b8152600401610b4d93929190611823565b5f604051808303815f87803b158015610b64575f80fd5b505af1158015610b76573d5f803e3d5ffd5b505050508a8c73ffffffffffffffffffffffffffffffffffffffff163373ffffffffffffffffffffffffffffffffffffffff167f263223b1dd81e51054a4e6f791d45a4a1ddb4aadcd93a2dfd892615c3fdac187845f0151604051610bdb9190611398565b60405180910390a450505050610bef6112c0565b5050505050505050565b8181335f8390505f8173ffffffffffffffffffffffffffffffffffffffff16636352211e856040518263ffffffff1660e01b8152600401610c3a9190611398565b602060405180830381865afa158015610c55573d5f803e3d5ffd5b505050506040513d601f19601f82011682018060405250810190610c799190611763565b90508073ffffffffffffffffffffffffffffffffffffffff168373ffffffffffffffffffffffffffffffffffffffff1614610ce0576040517f94953b6000000000000000000000000000000000000000000000000000000000815260040160405180910390fd5b86865f60025f8473ffffffffffffffffffffffffffffffffffffffff1673ffffffffffffffffffffffffffffffffffffffff1681526020019081526020015f205f8381526020019081526020015f206040518060400160405290815f8201548152602001600182015f9054906101000a900473ffffffffffffffffffffffffffffffffffffffff1673ffffffffffffffffffffffffffffffffffffffff1673ffffffffffffffffffffffffffffffffffffffff168152505090505f815f015111610de35782826040517f6d350f22000000000000000000000000000000000000000000000000000000008152600401610dda929190611728565b60405180910390fd5b60025f8b73ffffffffffffffffffffffffffffffffffffffff1673ffffffffffffffffffffffffffffffffffffffff1681526020019081526020015f205f8a81526020019081526020015f205f8082015f9055600182015f6101000a81549073ffffffffffffffffffffffffffffffffffffffff02191690555050888a73ffffffffffffffffffffffffffffffffffffffff163373ffffffffffffffffffffffffffffffffffffffff167f9ba1a3cb55ce8d63d072a886f94d2a744f50cddf82128e897d0661f5ec62315860405160405180910390a450505050505050505050565b610ecd6112c9565b60025f8473ffffffffffffffffffffffffffffffffffffffff1673ffffffffffffffffffffffffffffffffffffffff1681526020019081526020015f205f8381526020019081526020015f206040518060400160405290815f8201548152602001600182015f9054906101000a900473ffffffffffffffffffffffffffffffffffffffff1673ffffffffffffffffffffffffffffffffffffffff1673ffffffffffffffffffffffffffffffffffffffff1681525050905092915050565b82825f60025f8473ffffffffffffffffffffffffffffffffffffffff1673ffffffffffffffffffffffffffffffffffffffff1681526020019081526020015f205f8381526020019081526020015f206040518060400160405290815f8201548152602001600182015f9054906101000a900473ffffffffffffffffffffffffffffffffffffffff1673ffffffffffffffffffffffffffffffffffffffff1673ffffffffffffffffffffffffffffffffffffffff168152505090505f815f01511161108d5782826040517f6d350f22000000000000000000000000000000000000000000000000000000008152600401611084929190611728565b60405180910390fd5b8585335f8390505f8173ffffffffffffffffffffffffffffffffffffffff16636352211e856040518263ffffffff1660e01b81526004016110ce9190611398565b602060405180830381865afa1580156110e9573d5f803e3d5ffd5b505050506040513d601f19601f8201168201806040525081019061110d9190611763565b90508073ffffffffffffffffffffffffffffffffffffffff168373ffffffffffffffffffffffffffffffffffffffff1614611174576040517f94953b6000000000000000000000000000000000000000000000000000000000815260040160405180910390fd5b5f89116111ad576040517f096d7ecf00000000000000000000000000000000000000000000000000000000815260040160405180910390fd5b8860025f8d73ffffffffffffffffffffffffffffffffffffffff1673ffffffffffffffffffffffffffffffffffffffff1681526020019081526020015f205f8c81526020019081526020015f205f0181905550898b73ffffffffffffffffffffffffffffffffffffffff163373ffffffffffffffffffffffffffffffffffffffff167fd547e933094f12a9159076970143ebe73234e64480317844b0dcb36117116de48c60405161125e9190611398565b60405180910390a45050505050505050505050565b60025f54036112b7576040517f08c379a00000000000000000000000000000000000000000000000000000000081526004016112ae906118b2565b60405180910390fd5b60025f81905550565b60015f81905550565b60405180604001604052805f81526020015f73ffffffffffffffffffffffffffffffffffffffff1681525090565b5f80fd5b5f73ffffffffffffffffffffffffffffffffffffffff82169050919050565b5f611324826112fb565b9050919050565b6113348161131a565b811461133e575f80fd5b50565b5f8135905061134f8161132b565b92915050565b5f6020828403121561136a576113696112f7565b5b5f61137784828501611341565b91505092915050565b5f819050919050565b61139281611380565b82525050565b5f6020820190506113ab5f830184611389565b92915050565b6113ba81611380565b81146113c4575f80fd5b50565b5f813590506113d5816113b1565b92915050565b5f819050919050565b6113ed816113db565b81146113f7575f80fd5b50565b5f81359050611408816113e4565b92915050565b5f60ff82169050919050565b6114238161140e565b811461142d575f80fd5b50565b5f8135905061143e8161141a565b92915050565b5f805f805f8060c0878903121561145e5761145d6112f7565b5b5f61146b89828a016113c7565b965050602061147c89828a016113c7565b955050604061148d89828a016113fa565b945050606061149e89828a01611430565b93505060806114af89828a016113fa565b92505060a06114c089828a016113fa565b9150509295509295509295565b5f805f606084860312156114e4576114e36112f7565b5b5f6114f186828701611341565b9350506020611502868287016113c7565b9250506040611513868287016113c7565b9150509250925092565b5f805f805f805f80610100898b03121561153a576115396112f7565b5b5f6115478b828c01611341565b98505060206115588b828c016113c7565b97505060406115698b828c016113c7565b965050606061157a8b828c016113c7565b955050608061158b8b828c016113fa565b94505060a061159c8b828c01611430565b93505060c06115ad8b828c016113fa565b92505060e06115be8b828c016113fa565b9150509295985092959890939650565b5f80604083850312156115e4576115e36112f7565b5b5f6115f185828601611341565b9250506020611602858286016113c7565b9150509250929050565b61161581611380565b82525050565b6116248161131a565b82525050565b604082015f82015161163e5f85018261160c565b506020820151611651602085018261161b565b50505050565b5f60408201905061166a5f83018461162a565b92915050565b6116798161131a565b82525050565b611688816113db565b82525050565b6116978161140e565b82525050565b5f610120820190506116b15f83018c611670565b6116be602083018b611670565b6116cb604083018a611389565b6116d86060830189611389565b6116e56080830188611389565b6116f260a083018761167f565b6116ff60c083018661168e565b61170c60e083018561167f565b61171a61010083018461167f565b9a9950505050505050505050565b5f60408201905061173b5f830185611670565b6117486020830184611389565b9392505050565b5f8151905061175d8161132b565b92915050565b5f60208284031215611778576117776112f7565b5b5f6117858482850161174f565b91505092915050565b5f6060820190506117a15f830186611670565b6117ae6020830185611389565b6117bb6040830184611389565b949350505050565b7f4e487b71000000000000000000000000000000000000000000000000000000005f52601160045260245ffd5b5f6117fa82611380565b915061180583611380565b925082820190508082111561181d5761181c6117c3565b5b92915050565b5f6060820190506118365f830186611670565b6118436020830185611670565b6118506040830184611389565b949350505050565b5f82825260208201905092915050565b7f5265656e7472616e637947756172643a207265656e7472616e742063616c6c005f82015250565b5f61189c601f83611858565b91506118a782611868565b602082019050919050565b5f6020820190508181035f8301526118c981611890565b905091905056fea26469706673582212201a9e8f98d94dd4723d08a92e70c78fc7abfac05764719c3431c720025363b46e64736f6c63430008140033",
  "devdoc": {
    "kind": "dev",
    "methods": {
      "listItem(address,uint256,uint256)": {
        "details": "Technically, we could not have the contract be the escrow for the NFTs, but this way people can still hold their NFTs when listed.",
        "params": {
          "nftAddress": ": Address of the NFT",
          "price": ": sale price of the listed NFT",
          "tokenId": ": The Token ID of the NFT"
        }
      }
    },
    "version": 1
  },
  "userdoc": {
    "kind": "user",
    "methods": {
      "listItem(address,uint256,uint256)": {
        "notice": "Method for listing your NFT on the marketplace"
      }
    },
    "version": 1
  },
  "storageLayout": {
    "storage": [
      {
        "astId": 10,
        "contract": "contracts/NftMarketplace.sol:NftMarketplace",
        "label": "_status",
        "offset": 0,
        "slot": "0",
        "type": "t_uint256"
      },
      {
        "astId": 320,
        "contract": "contracts/NftMarketplace.sol:NftMarketplace",
        "label": "s_jpyc",
        "offset": 0,
        "slot": "1",
        "type": "t_contract(IJPYC)846"
      },
      {
        "astId": 327,
        "contract": "contracts/NftMarketplace.sol:NftMarketplace",
        "label": "s_listings",
        "offset": 0,
        "slot": "2",
        "type": "t_mapping(t_address,t_mapping(t_uint256,t_struct(Listing)317_storage))"
      },
      {
        "astId": 331,
        "contract": "contracts/NftMarketplace.sol:NftMarketplace",
        "label": "s_proceeds",
        "offset": 0,
        "slot": "3",
        "type": "t_mapping(t_address,t_uint256)"
      }
    ],
    "types": {
      "t_address": {
        "encoding": "inplace",
        "label": "address",
        "numberOfBytes": "20"
      },
      "t_contract(IJPYC)846": {
        "encoding": "inplace",
        "label": "contract IJPYC",
        "numberOfBytes": "20"
      },
      "t_mapping(t_address,t_mapping(t_uint256,t_struct(Listing)317_storage))": {
        "encoding": "mapping",
        "key": "t_address",
        "label": "mapping(address => mapping(uint256 => struct NftMarketplace.Listing))",
        "numberOfBytes": "32",
        "value": "t_mapping(t_uint256,t_struct(Listing)317_storage)"
      },
      "t_mapping(t_address,t_uint256)": {
        "encoding": "mapping",
        "key": "t_address",
        "label": "mapping(address => uint256)",
        "numberOfBytes": "32",
        "value": "t_uint256"
      },
      "t_mapping(t_uint256,t_struct(Listing)317_storage)": {
        "encoding": "mapping",
        "key": "t_uint256",
        "label": "mapping(uint256 => struct NftMarketplace.Listing)",
        "numberOfBytes": "32",
        "value": "t_struct(Listing)317_storage"
      },
      "t_struct(Listing)317_storage": {
        "encoding": "inplace",
        "label": "struct NftMarketplace.Listing",
        "members": [
          {
            "astId": 314,
            "contract": "contracts/NftMarketplace.sol:NftMarketplace",
            "label": "price",
            "offset": 0,
            "slot": "0",
            "type": "t_uint256"
          },
          {
            "astId": 316,
            "contract": "contracts/NftMarketplace.sol:NftMarketplace",
            "label": "seller",
            "offset": 0,
            "slot": "1",
            "type": "t_address"
          }
        ],
        "numberOfBytes": "64"
      },
      "t_uint256": {
        "encoding": "inplace",
        "label": "uint256",
        "numberOfBytes": "32"
      }
    }
  }
}