{
  "address": "0x0Ba7Ef6751949F22C4D81f0886827759BBB56808",
  "abi": [
    {
      "inputs": [
        {
          "internalType": "address",
          "name": "_jpycAddr",
          "type": "address"
        }
      ],
      "stateMutability": "nonpayable",
      "type": "constructor"
    },
    {
      "inputs": [
        {
          "internalType": "address",
          "name": "nftAddress",
          "type": "address"
        },
        {
          "internalType": "uint256",
          "name": "tokenId",
          "type": "uint256"
        }
      ],
      "name": "NftMarketplace__AlreadyListed",
      "type": "error"
    },
    {
      "inputs": [],
      "name": "NftMarketplace__NoProceeds",
      "type": "error"
    },
    {
      "inputs": [],
      "name": "NftMarketplace__NotApprovedForMarketplace",
      "type": "error"
    },
    {
      "inputs": [
        {
          "internalType": "address",
          "name": "nftAddress",
          "type": "address"
        },
        {
          "internalType": "uint256",
          "name": "tokenId",
          "type": "uint256"
        }
      ],
      "name": "NftMarketplace__NotListed",
      "type": "error"
    },
    {
      "inputs": [],
      "name": "NftMarketplace__NotOwner",
      "type": "error"
    },
    {
      "inputs": [],
      "name": "NftMarketplace__PriceMustBeAboveZero",
      "type": "error"
    },
    {
      "inputs": [
        {
          "internalType": "address",
          "name": "nftAddress",
          "type": "address"
        },
        {
          "internalType": "uint256",
          "name": "tokenId",
          "type": "uint256"
        },
        {
          "internalType": "uint256",
          "name": "price",
          "type": "uint256"
        }
      ],
      "name": "NftMarketplace__PriceNotMet",
      "type": "error"
    },
    {
      "inputs": [],
      "name": "NftMarketplace__TransferFailed",
      "type": "error"
    },
    {
      "anonymous": false,
      "inputs": [
        {
          "indexed": true,
          "internalType": "address",
          "name": "buyer",
          "type": "address"
        },
        {
          "indexed": true,
          "internalType": "address",
          "name": "nftAddress",
          "type": "address"
        },
        {
          "indexed": true,
          "internalType": "uint256",
          "name": "tokenId",
          "type": "uint256"
        },
        {
          "indexed": false,
          "internalType": "uint256",
          "name": "price",
          "type": "uint256"
        }
      ],
      "name": "ItemBought",
      "type": "event"
    },
    {
      "anonymous": false,
      "inputs": [
        {
          "indexed": true,
          "internalType": "address",
          "name": "seller",
          "type": "address"
        },
        {
          "indexed": true,
          "internalType": "address",
          "name": "nftAddress",
          "type": "address"
        },
        {
          "indexed": true,
          "internalType": "uint256",
          "name": "tokenId",
          "type": "uint256"
        }
      ],
      "name": "ItemCanceled",
      "type": "event"
    },
    {
      "anonymous": false,
      "inputs": [
        {
          "indexed": true,
          "internalType": "address",
          "name": "seller",
          "type": "address"
        },
        {
          "indexed": true,
          "internalType": "address",
          "name": "nftAddress",
          "type": "address"
        },
        {
          "indexed": true,
          "internalType": "uint256",
          "name": "tokenId",
          "type": "uint256"
        },
        {
          "indexed": false,
          "internalType": "uint256",
          "name": "price",
          "type": "uint256"
        }
      ],
      "name": "ItemListed",
      "type": "event"
    },
    {
      "inputs": [
        {
          "internalType": "address",
          "name": "nftAddress",
          "type": "address"
        },
        {
          "internalType": "uint256",
          "name": "tokenId",
          "type": "uint256"
        }
      ],
      "name": "buyItem",
      "outputs": [],
      "stateMutability": "payable",
      "type": "function"
    },
    {
      "inputs": [
        {
          "internalType": "address",
          "name": "nftAddress",
          "type": "address"
        },
        {
          "internalType": "uint256",
          "name": "tokenId",
          "type": "uint256"
        }
      ],
      "name": "cancelListing",
      "outputs": [],
      "stateMutability": "nonpayable",
      "type": "function"
    },
    {
      "inputs": [
        {
          "internalType": "address",
          "name": "nftAddress",
          "type": "address"
        },
        {
          "internalType": "uint256",
          "name": "tokenId",
          "type": "uint256"
        }
      ],
      "name": "getListed",
      "outputs": [
        {
          "components": [
            {
              "internalType": "uint256",
              "name": "price",
              "type": "uint256"
            },
            {
              "internalType": "address",
              "name": "seller",
              "type": "address"
            }
          ],
          "internalType": "struct NftMarketplace.Listing",
          "name": "",
          "type": "tuple"
        }
      ],
      "stateMutability": "view",
      "type": "function"
    },
    {
      "inputs": [
        {
          "internalType": "address",
          "name": "seller",
          "type": "address"
        }
      ],
      "name": "getProceeds",
      "outputs": [
        {
          "internalType": "uint256",
          "name": "",
          "type": "uint256"
        }
      ],
      "stateMutability": "view",
      "type": "function"
    },
    {
      "inputs": [
        {
          "internalType": "address",
          "name": "nftAddress",
          "type": "address"
        },
        {
          "internalType": "uint256",
          "name": "tokenId",
          "type": "uint256"
        },
        {
          "internalType": "uint256",
          "name": "price",
          "type": "uint256"
        }
      ],
      "name": "listItem",
      "outputs": [],
      "stateMutability": "nonpayable",
      "type": "function"
    },
    {
      "inputs": [
        {
          "internalType": "address",
          "name": "nftAddress",
          "type": "address"
        },
        {
          "internalType": "uint256",
          "name": "tokenId",
          "type": "uint256"
        },
        {
          "internalType": "uint256",
          "name": "newPrice",
          "type": "uint256"
        }
      ],
      "name": "updateListing",
      "outputs": [],
      "stateMutability": "nonpayable",
      "type": "function"
    },
    {
      "inputs": [],
      "name": "withdrawProceeds",
      "outputs": [],
      "stateMutability": "nonpayable",
      "type": "function"
    }
  ],
  "transactionHash": "0x90904ee60398b8bf743bca74a8c01ac441c290fb839f4d95db0c78da1265b62f",
  "args": [
    "0x772506B2e4105ABE0489895E807e45bA09c83db8"
  ],
  "numDeployments": 2,
  "solcInputHash": "d82ab48fb2d57494cc6a400d11fc72aa",
  "bytecode": "0x608060405234801562000010575f80fd5b50604051620018a5380380620018a58339818101604052810190620000369190620000e9565b60015f819055508060015f6101000a81548173ffffffffffffffffffffffffffffffffffffffff021916908373ffffffffffffffffffffffffffffffffffffffff1602179055505062000119565b5f80fd5b5f73ffffffffffffffffffffffffffffffffffffffff82169050919050565b5f620000b38262000088565b9050919050565b620000c581620000a7565b8114620000d0575f80fd5b50565b5f81519050620000e381620000ba565b92915050565b5f6020828403121562000101576200010062000084565b5b5f6200011084828501620000d3565b91505092915050565b61177e80620001275f395ff3fe60806040526004361061006f575f3560e01c80639f37092a1161004d5780639f37092a146100ed578063b2ddee0614610109578063cd6a20dc14610131578063f772adf11461016d5761006f565b806330cfeda91461007357806389bfd38f146100af5780639038e693146100d7575b5f80fd5b34801561007e575f80fd5b50610099600480360381019061009491906113b9565b610195565b6040516100a691906113fc565b60405180910390f35b3480156100ba575f80fd5b506100d560048036038101906100d0919061143f565b6101db565b005b3480156100e2575f80fd5b506100eb61061d565b005b6101076004803603810190610102919061148f565b6107b3565b005b348015610114575f80fd5b5061012f600480360381019061012a919061148f565b610c5d565b005b34801561013c575f80fd5b506101576004803603810190610152919061148f565b610f29565b6040516101649190611518565b60405180910390f35b348015610178575f80fd5b50610193600480360381019061018e919061143f565b610fee565b005b5f60035f8373ffffffffffffffffffffffffffffffffffffffff1673ffffffffffffffffffffffffffffffffffffffff1681526020019081526020015f20549050919050565b8282335f60025f8573ffffffffffffffffffffffffffffffffffffffff1673ffffffffffffffffffffffffffffffffffffffff1681526020019081526020015f205f8481526020019081526020015f206040518060400160405290815f8201548152602001600182015f9054906101000a900473ffffffffffffffffffffffffffffffffffffffff1673ffffffffffffffffffffffffffffffffffffffff1673ffffffffffffffffffffffffffffffffffffffff168152505090505f815f015111156102e05783836040517fc2f0d7090000000000000000000000000000000000000000000000000000000081526004016102d7929190611540565b60405180910390fd5b8686335f8390505f8173ffffffffffffffffffffffffffffffffffffffff16636352211e856040518263ffffffff1660e01b815260040161032191906113fc565b602060405180830381865afa15801561033c573d5f803e3d5ffd5b505050506040513d601f19601f82011682018060405250810190610360919061157b565b90508073ffffffffffffffffffffffffffffffffffffffff168373ffffffffffffffffffffffffffffffffffffffff16146103c7576040517f94953b6000000000000000000000000000000000000000000000000000000000815260040160405180910390fd5b5f8a11610400576040517f096d7ecf00000000000000000000000000000000000000000000000000000000815260040160405180910390fd5b5f8c90503073ffffffffffffffffffffffffffffffffffffffff168173ffffffffffffffffffffffffffffffffffffffff1663081812fc8e6040518263ffffffff1660e01b815260040161045491906113fc565b602060405180830381865afa15801561046f573d5f803e3d5ffd5b505050506040513d601f19601f82011682018060405250810190610493919061157b565b73ffffffffffffffffffffffffffffffffffffffff16146104e0576040517f13e7d28d00000000000000000000000000000000000000000000000000000000815260040160405180910390fd5b60405180604001604052808c81526020013373ffffffffffffffffffffffffffffffffffffffff1681525060025f8f73ffffffffffffffffffffffffffffffffffffffff1673ffffffffffffffffffffffffffffffffffffffff1681526020019081526020015f205f8e81526020019081526020015f205f820151815f01556020820151816001015f6101000a81548173ffffffffffffffffffffffffffffffffffffffff021916908373ffffffffffffffffffffffffffffffffffffffff1602179055509050508b8d73ffffffffffffffffffffffffffffffffffffffff163373ffffffffffffffffffffffffffffffffffffffff167fd547e933094f12a9159076970143ebe73234e64480317844b0dcb36117116de48e60405161060691906113fc565b60405180910390a450505050505050505050505050565b5f60035f3373ffffffffffffffffffffffffffffffffffffffff1673ffffffffffffffffffffffffffffffffffffffff1681526020019081526020015f205490505f8111610697576040517f668a7c4200000000000000000000000000000000000000000000000000000000815260040160405180910390fd5b5f60035f3373ffffffffffffffffffffffffffffffffffffffff1673ffffffffffffffffffffffffffffffffffffffff1681526020019081526020015f20819055505f60015f9054906101000a900473ffffffffffffffffffffffffffffffffffffffff1673ffffffffffffffffffffffffffffffffffffffff1663a9059cbb33846040518363ffffffff1660e01b8152600401610736929190611540565b6020604051808303815f875af1158015610752573d5f803e3d5ffd5b505050506040513d601f19601f8201168201806040525081019061077691906115db565b9050806107af576040517fa05884ba00000000000000000000000000000000000000000000000000000000815260040160405180910390fd5b5050565b6107bb6112d7565b81815f60025f8473ffffffffffffffffffffffffffffffffffffffff1673ffffffffffffffffffffffffffffffffffffffff1681526020019081526020015f205f8381526020019081526020015f206040518060400160405290815f8201548152602001600182015f9054906101000a900473ffffffffffffffffffffffffffffffffffffffff1673ffffffffffffffffffffffffffffffffffffffff1673ffffffffffffffffffffffffffffffffffffffff168152505090505f815f0151116108be5782826040517f6d350f220000000000000000000000000000000000000000000000000000000081526004016108b5929190611540565b60405180910390fd5b5f60025f8773ffffffffffffffffffffffffffffffffffffffff1673ffffffffffffffffffffffffffffffffffffffff1681526020019081526020015f205f8681526020019081526020015f206040518060400160405290815f8201548152602001600182015f9054906101000a900473ffffffffffffffffffffffffffffffffffffffff1673ffffffffffffffffffffffffffffffffffffffff1673ffffffffffffffffffffffffffffffffffffffff16815250509050805f01513410156109c5578585825f01516040517f817ce9f10000000000000000000000000000000000000000000000000000000081526004016109bc93929190611606565b60405180910390fd5b805f015160035f836020015173ffffffffffffffffffffffffffffffffffffffff1673ffffffffffffffffffffffffffffffffffffffff1681526020019081526020015f205f828254610a189190611668565b925050819055505f60015f9054906101000a900473ffffffffffffffffffffffffffffffffffffffff1673ffffffffffffffffffffffffffffffffffffffff166323b872dd3330855f01516040518463ffffffff1660e01b8152600401610a819392919061169b565b6020604051808303815f875af1158015610a9d573d5f803e3d5ffd5b505050506040513d601f19601f82011682018060405250810190610ac191906115db565b905080610afa576040517fa05884ba00000000000000000000000000000000000000000000000000000000815260040160405180910390fd5b60025f8873ffffffffffffffffffffffffffffffffffffffff1673ffffffffffffffffffffffffffffffffffffffff1681526020019081526020015f205f8781526020019081526020015f205f8082015f9055600182015f6101000a81549073ffffffffffffffffffffffffffffffffffffffff021916905550508673ffffffffffffffffffffffffffffffffffffffff166342842e0e836020015133896040518463ffffffff1660e01b8152600401610bb69392919061169b565b5f604051808303815f87803b158015610bcd575f80fd5b505af1158015610bdf573d5f803e3d5ffd5b50505050858773ffffffffffffffffffffffffffffffffffffffff163373ffffffffffffffffffffffffffffffffffffffff167f263223b1dd81e51054a4e6f791d45a4a1ddb4aadcd93a2dfd892615c3fdac187855f0151604051610c4491906113fc565b60405180910390a45050505050610c59611324565b5050565b8181335f8390505f8173ffffffffffffffffffffffffffffffffffffffff16636352211e856040518263ffffffff1660e01b8152600401610c9e91906113fc565b602060405180830381865afa158015610cb9573d5f803e3d5ffd5b505050506040513d601f19601f82011682018060405250810190610cdd919061157b565b90508073ffffffffffffffffffffffffffffffffffffffff168373ffffffffffffffffffffffffffffffffffffffff1614610d44576040517f94953b6000000000000000000000000000000000000000000000000000000000815260040160405180910390fd5b86865f60025f8473ffffffffffffffffffffffffffffffffffffffff1673ffffffffffffffffffffffffffffffffffffffff1681526020019081526020015f205f8381526020019081526020015f206040518060400160405290815f8201548152602001600182015f9054906101000a900473ffffffffffffffffffffffffffffffffffffffff1673ffffffffffffffffffffffffffffffffffffffff1673ffffffffffffffffffffffffffffffffffffffff168152505090505f815f015111610e475782826040517f6d350f22000000000000000000000000000000000000000000000000000000008152600401610e3e929190611540565b60405180910390fd5b60025f8b73ffffffffffffffffffffffffffffffffffffffff1673ffffffffffffffffffffffffffffffffffffffff1681526020019081526020015f205f8a81526020019081526020015f205f8082015f9055600182015f6101000a81549073ffffffffffffffffffffffffffffffffffffffff02191690555050888a73ffffffffffffffffffffffffffffffffffffffff163373ffffffffffffffffffffffffffffffffffffffff167f9ba1a3cb55ce8d63d072a886f94d2a744f50cddf82128e897d0661f5ec62315860405160405180910390a450505050505050505050565b610f3161132d565b60025f8473ffffffffffffffffffffffffffffffffffffffff1673ffffffffffffffffffffffffffffffffffffffff1681526020019081526020015f205f8381526020019081526020015f206040518060400160405290815f8201548152602001600182015f9054906101000a900473ffffffffffffffffffffffffffffffffffffffff1673ffffffffffffffffffffffffffffffffffffffff1673ffffffffffffffffffffffffffffffffffffffff1681525050905092915050565b82825f60025f8473ffffffffffffffffffffffffffffffffffffffff1673ffffffffffffffffffffffffffffffffffffffff1681526020019081526020015f205f8381526020019081526020015f206040518060400160405290815f8201548152602001600182015f9054906101000a900473ffffffffffffffffffffffffffffffffffffffff1673ffffffffffffffffffffffffffffffffffffffff1673ffffffffffffffffffffffffffffffffffffffff168152505090505f815f0151116110f15782826040517f6d350f220000000000000000000000000000000000000000000000000000000081526004016110e8929190611540565b60405180910390fd5b8585335f8390505f8173ffffffffffffffffffffffffffffffffffffffff16636352211e856040518263ffffffff1660e01b815260040161113291906113fc565b602060405180830381865afa15801561114d573d5f803e3d5ffd5b505050506040513d601f19601f82011682018060405250810190611171919061157b565b90508073ffffffffffffffffffffffffffffffffffffffff168373ffffffffffffffffffffffffffffffffffffffff16146111d8576040517f94953b6000000000000000000000000000000000000000000000000000000000815260040160405180910390fd5b5f8911611211576040517f096d7ecf00000000000000000000000000000000000000000000000000000000815260040160405180910390fd5b8860025f8d73ffffffffffffffffffffffffffffffffffffffff1673ffffffffffffffffffffffffffffffffffffffff1681526020019081526020015f205f8c81526020019081526020015f205f0181905550898b73ffffffffffffffffffffffffffffffffffffffff163373ffffffffffffffffffffffffffffffffffffffff167fd547e933094f12a9159076970143ebe73234e64480317844b0dcb36117116de48c6040516112c291906113fc565b60405180910390a45050505050505050505050565b60025f540361131b576040517f08c379a00000000000000000000000000000000000000000000000000000000081526004016113129061172a565b60405180910390fd5b60025f81905550565b60015f81905550565b60405180604001604052805f81526020015f73ffffffffffffffffffffffffffffffffffffffff1681525090565b5f80fd5b5f73ffffffffffffffffffffffffffffffffffffffff82169050919050565b5f6113888261135f565b9050919050565b6113988161137e565b81146113a2575f80fd5b50565b5f813590506113b38161138f565b92915050565b5f602082840312156113ce576113cd61135b565b5b5f6113db848285016113a5565b91505092915050565b5f819050919050565b6113f6816113e4565b82525050565b5f60208201905061140f5f8301846113ed565b92915050565b61141e816113e4565b8114611428575f80fd5b50565b5f8135905061143981611415565b92915050565b5f805f606084860312156114565761145561135b565b5b5f611463868287016113a5565b93505060206114748682870161142b565b92505060406114858682870161142b565b9150509250925092565b5f80604083850312156114a5576114a461135b565b5b5f6114b2858286016113a5565b92505060206114c38582860161142b565b9150509250929050565b6114d6816113e4565b82525050565b6114e58161137e565b82525050565b604082015f8201516114ff5f8501826114cd565b50602082015161151260208501826114dc565b50505050565b5f60408201905061152b5f8301846114eb565b92915050565b61153a8161137e565b82525050565b5f6040820190506115535f830185611531565b61156060208301846113ed565b9392505050565b5f815190506115758161138f565b92915050565b5f602082840312156115905761158f61135b565b5b5f61159d84828501611567565b91505092915050565b5f8115159050919050565b6115ba816115a6565b81146115c4575f80fd5b50565b5f815190506115d5816115b1565b92915050565b5f602082840312156115f0576115ef61135b565b5b5f6115fd848285016115c7565b91505092915050565b5f6060820190506116195f830186611531565b61162660208301856113ed565b61163360408301846113ed565b949350505050565b7f4e487b71000000000000000000000000000000000000000000000000000000005f52601160045260245ffd5b5f611672826113e4565b915061167d836113e4565b92508282019050808211156116955761169461163b565b5b92915050565b5f6060820190506116ae5f830186611531565b6116bb6020830185611531565b6116c860408301846113ed565b949350505050565b5f82825260208201905092915050565b7f5265656e7472616e637947756172643a207265656e7472616e742063616c6c005f82015250565b5f611714601f836116d0565b915061171f826116e0565b602082019050919050565b5f6020820190508181035f83015261174181611708565b905091905056fea2646970667358221220244aa42962c998f202b324131dbd98edef80ee74825efc2353a53351aae1f87e64736f6c63430008140033",
  "devdoc": {
    "kind": "dev",
    "methods": {
      "listItem(address,uint256,uint256)": {
        "details": "Technically, we could not have the contract be the escrow for the NFTs, but this way people can still hold their NFTs when listed.",
        "params": {
          "nftAddress": ": Address of the NFT",
          "price": ": sale price of the listed NFT",
          "tokenId": ": The Token ID of the NFT"
        }
      }
    },
    "version": 1
  },
  "userdoc": {
    "kind": "user",
    "methods": {
      "listItem(address,uint256,uint256)": {
        "notice": "Method for listing your NFT on the marketplace"
      }
    },
    "version": 1
  },
  "storageLayout": {
    "storage": [
      {
        "astId": 10,
        "contract": "contracts/NftMarketplace.sol:NftMarketplace",
        "label": "_status",
        "offset": 0,
        "slot": "0",
        "type": "t_uint256"
      },
      {
        "astId": 320,
        "contract": "contracts/NftMarketplace.sol:NftMarketplace",
        "label": "s_jpyc",
        "offset": 0,
        "slot": "1",
        "type": "t_contract(IJPYC)896"
      },
      {
        "astId": 327,
        "contract": "contracts/NftMarketplace.sol:NftMarketplace",
        "label": "s_listings",
        "offset": 0,
        "slot": "2",
        "type": "t_mapping(t_address,t_mapping(t_uint256,t_struct(Listing)317_storage))"
      },
      {
        "astId": 331,
        "contract": "contracts/NftMarketplace.sol:NftMarketplace",
        "label": "s_proceeds",
        "offset": 0,
        "slot": "3",
        "type": "t_mapping(t_address,t_uint256)"
      }
    ],
    "types": {
      "t_address": {
        "encoding": "inplace",
        "label": "address",
        "numberOfBytes": "20"
      },
      "t_contract(IJPYC)896": {
        "encoding": "inplace",
        "label": "contract IJPYC",
        "numberOfBytes": "20"
      },
      "t_mapping(t_address,t_mapping(t_uint256,t_struct(Listing)317_storage))": {
        "encoding": "mapping",
        "key": "t_address",
        "label": "mapping(address => mapping(uint256 => struct NftMarketplace.Listing))",
        "numberOfBytes": "32",
        "value": "t_mapping(t_uint256,t_struct(Listing)317_storage)"
      },
      "t_mapping(t_address,t_uint256)": {
        "encoding": "mapping",
        "key": "t_address",
        "label": "mapping(address => uint256)",
        "numberOfBytes": "32",
        "value": "t_uint256"
      },
      "t_mapping(t_uint256,t_struct(Listing)317_storage)": {
        "encoding": "mapping",
        "key": "t_uint256",
        "label": "mapping(uint256 => struct NftMarketplace.Listing)",
        "numberOfBytes": "32",
        "value": "t_struct(Listing)317_storage"
      },
      "t_struct(Listing)317_storage": {
        "encoding": "inplace",
        "label": "struct NftMarketplace.Listing",
        "members": [
          {
            "astId": 314,
            "contract": "contracts/NftMarketplace.sol:NftMarketplace",
            "label": "price",
            "offset": 0,
            "slot": "0",
            "type": "t_uint256"
          },
          {
            "astId": 316,
            "contract": "contracts/NftMarketplace.sol:NftMarketplace",
            "label": "seller",
            "offset": 0,
            "slot": "1",
            "type": "t_address"
          }
        ],
        "numberOfBytes": "64"
      },
      "t_uint256": {
        "encoding": "inplace",
        "label": "uint256",
        "numberOfBytes": "32"
      }
    }
  }
}